:020000040800F2
:1000000000000220ED3D00083D360008453600089E
:100010004D360008553600085D3600080000000027
:1000200000000000000000000000000001A0000827
:10003000653600080000000051A20008B97B0008E6
:100040003D3E0008733600083D3E00083D3E000876
:100050003D3E00083D3E00083D3E00083D3E000894
:100060003D3E00083D3E00087F3600083D3E00084A
:100070003D3E00083D3E00083D3E00083D3E000874
:100080003D3E00083D3E00083D3E00088D3600081C
:10009000A1360008B53600083D3E00083D3E000888
:1000A0003D3E00083D3E00083D3E00083D3E000844
:1000B000C93600083D3E00083D3E00083D3E0008B0
:1000C0003D3E00083D3E00083D3E00083D3E000824
:1000D0003D3E00083D3E00083D3E00083D3E000814
:1000E0003D3E00083D3E00083D3E00083D3E000804
:1000F0003D3E00083D3E00083D3E00083D3E0008F4
:100100003D3E00083D3E00083D3E00083D3E0008E3
:100110003D3E00083D3E00083D3E00083D3E0008D3
:100120003D3E00083D3E00083D3E00083D3E0008C3
:100130003D3E00080000000000000000DD36000821
:10014000F1360008053700083D3E00083D3E000836
:100150003D3E00083D3E00083D3E00083D3E000893
:100160003D3E00083D3E00083D3E00083D3E000883
:100170003D3E00083D3E0008000000000000000079
:080180003D3E00083D3E000871
:1001900010B5054C237833B9044B13B10448AFF3C1
:1001A00000800123237010BDF40100200000000036
:1001B00084D5000808B5034B1BB103490348AFF3CE
:1001C000008008BD00000000F801002084D5000870
:1001D00001F0FF01102A2BDB10F0070F08D010F8F8
:1001E000013B013A8B422DD010F0070F42B3F6D1FC
:1001F000F0B441EA012141EA014122F007047FF015
:1002000000070023F0E80256083C85EA010586EA6B
:10021000010685FA47F5A3FA87F586FA47F6A5FAA7
:1002200087F68EB9EED1F0BC01F0FF0102F00702B3
:1002300032B110F8013B013A83EA010313B1F8D15E
:100240000020704701387047002D06BF354603383F
:10025000073815F0010F07D1013015F4807F02BF78
:10026000013015F4C03F0130F0BC0138704700BFC9
:10027000034613F8012B002AFBD1181A01387047E6
:1002800081F0004102E000BF83F0004330B54FEA47
:1002900041044FEA430594EA050F08BF90EA020FB4
:1002A0001FBF54EA000C55EA020C7FEA645C7FEA47
:1002B000655C00F0E2804FEA5454D4EB5555B8BF6A
:1002C0006D420CDD2C4480EA020281EA030382EADB
:1002D000000083EA010180EA020281EA0303362D6D
:1002E00088BF30BD11F0004F4FEA01314FF4801C40
:1002F0004CEA113102D0404261EB410113F0004F52
:100300004FEA03334CEA133302D0524263EB430308
:1003100094EA050F00F0A780A4F10104D5F1200EA6
:100320000DDB02FA0EFC22FA05F2801841F1000101
:1003300003FA0EF2801843FA05F359410EE0A5F1D5
:1003400020050EF1200E012A03FA0EFC28BF4CF006
:10035000020C43FA05F3C01851EBE37101F00045BC
:1003600007D54FF0000EDCF1000C7EEB00006EEBC9
:100370000101B1F5801F1BD3B1F5001F0CD3490853
:100380005FEA30004FEA3C0C04F101044FEA4452AA
:1003900012F5800F80F09A80BCF1004F08BF5FEA31
:1003A000500C50F1000041EB045141EA050130BD11
:1003B0005FEA4C0C404141EB0101013C28BFB1F523
:1003C000801FE9D291F0000F04BF01460020B1FA6E
:1003D00081F308BF2033A3F10B03B3F120020CDA41
:1003E0000C3208DD02F1140CC2F10C0201FA0CF01F
:1003F00021FA02F10CE002F11402D8BFC2F1200C84
:1004000001FA02F120FA0CFCDCBF41EA0C01904039
:10041000E41AA2BF01EB0451294330BD6FEA040482
:100420001F3C1CDA0C340EDC04F11404C4F120026D
:1004300020FA04F001FA02F340EA030021FA04F37F
:1004400045EA030130BDC4F10C04C4F1200220FAD6
:1004500002F001FA04F340EA0300294630BD21FA14
:1004600004F0294630BD94F0000F83F4801306BFDA
:1004700081F480110134013D4EE77FEA645C18BFCE
:100480007FEA655C29D094EA050F08BF90EA020F65
:1004900005D054EA000C04BF1946104630BD91EA5D
:1004A000030F1EBF0021002030BD5FEA545C05D160
:1004B0004000494128BF41F0004130BD14F580049F
:1004C0003CBF01F5801130BD01F0004545F0FE4113
:1004D00041F470014FF0000030BD7FEA645C1ABF48
:1004E000194610467FEA655C1CBF0B46024650EA7F
:1004F000013406BF52EA033591EA030F41F40021AB
:1005000030BD00BF90F0000F04BF0021704730B530
:100510004FF4806404F132044FF000054FF0000105
:1005200050E700BF90F0000F04BF0021704730B5C6
:100530004FF4806404F1320410F0004548BF40429B
:100540004FF000013EE700BF42004FEAE2014FEAF0
:1005500031014FEA02701FBF12F07F4393F07F4FCB
:1005600081F06051704732F07F4208BF704793F0CE
:100570007F4F04BF41F40021704730B54FF46074E1
:1005800001F0004521F000411CE700BF50EA0102E4
:1005900008BF704730B54FF000050AE050EA01028D
:1005A00008BF704730B511F0004502D5404261EBFD
:1005B00041014FF4806404F132045FEA915C3FF43E
:1005C000D8AE4FF003025FEADC0C18BF03325FEADB
:1005D000DC0C18BF033202EBDC02C2F1200300FA8C
:1005E00003FC20FA02F001FA03FE40EA0E0021FAB1
:1005F00002F11444BDE600BF70B54FF0FF0C4CF49F
:10060000E06C1CEA11541DBF1CEA135594EA0C0F50
:1006100095EA0C0F00F0DEF82C4481EA030621EA8B
:100620004C5123EA4C5350EA013518BF52EA0335C6
:1006300041F4801143F4801338D0A0FB02CE4FF078
:100640000005E1FB02E506F00042E0FB03E54FF0A8
:100650000006E1FB03569CF0000F18BF4EF0010EA0
:10066000A4F1FF04B6F5007F64F5407404D25FEA9C
:100670004E0E6D4146EB060642EAC62141EA55514F
:100680004FEAC52040EA5E504FEACE2EB4F1FD0C91
:1006900088BFBCF5E06F1ED8BEF1004F08BF5FEA0F
:1006A000500E50F1000041EB045170BD06F00046C1
:1006B00046EA010140EA020081EA0301B4EB5C046E
:1006C000C2BFD4EB0C0541EA045170BD41F4801166
:1006D0004FF0000E013C00F3AB8014F1360FDEBF8B
:1006E000002001F0004170BDC4F10004203C35DA67
:1006F0000C341BDC04F11404C4F1200500FA05F3EA
:1007000020FA04F001FA05F240EA020001F000428A
:1007100021F0004110EBD37021FA04F642EB060100
:100720005EEA430E08BF20EAD37070BDC4F10C042A
:10073000C4F1200500FA04F320FA05F001FA04F2EE
:1007400040EA020001F0004110EBD37041F10001DA
:100750005EEA430E08BF20EAD37070BDC4F12005E5
:1007600000FA05F24EEA020E20FA04F301FA05F24D
:1007700043EA020321FA04F001F0004121FA04F2F5
:1007800020EA020000EBD3705EEA430E08BF20EAC5
:10079000D37070BD94F0000F0FD101F000464000FF
:1007A00041EB010111F4801F08BF013CF7D041EA81
:1007B000060195F0000F18BF704703F00046520085
:1007C00043EB030313F4801F08BF013DF7D043EA56
:1007D0000603704794EA0C0F0CEA135518BF95EA0C
:1007E0000C0F0CD050EA410618BF52EA4306D1D193
:1007F00081EA030101F000414FF0000070BD50EAB2
:10080000410606BF1046194652EA430619D094EA3B
:100810000C0F02D150EA013613D195EA0C0F05D125
:1008200052EA03361CBF104619460AD181EA030179
:1008300001F0004141F0FE4141F470014FF0000031
:1008400070BD41F0FE4141F4780170BD70B54FF0CC
:10085000FF0C4CF4E06C1CEA11541DBF1CEA13554C
:1008600094EA0C0F95EA0C0F00F0A7F8A4EB05042E
:1008700081EA030E52EA03354FEA013100F0888025
:100880004FEA03334FF0805545EA131343EA1263EE
:100890004FEA022245EA111545EA10654FEA0026A3
:1008A0000EF000419D4208BF964244F1FD0404F55C
:1008B000407402D25B084FEA3202B61A65EB0305B8
:1008C0005B084FEA32024FF480104FF4002CB6EB75
:1008D000020E75EB030E22BFB61A754640EA0C00F5
:1008E0005B084FEA3202B6EB020E75EB030E22BF35
:1008F000B61A754640EA5C005B084FEA3202B6EB76
:10090000020E75EB030E22BFB61A754640EA9C0034
:100910005B084FEA3202B6EB020E75EB030E22BF04
:10092000B61A754640EADC0055EA060E18D04FEAC2
:10093000051545EA16754FEA06164FEAC30343EA62
:1009400052734FEAC2025FEA1C1CC0D111F4801F2F
:100950000BD141EA00014FF000004FF0004CB6E728
:1009600011F4801F04BF01430020B4F1FD0C88BFC7
:10097000BCF5E06F3FF6AFAEB5EB030C04BFB6EBD2
:10098000020C5FEA500C50F1000041EB045170BDC5
:100990000EF0004E4EEA113114EB5C04C2BFD4EBF2
:1009A0000C0541EA045170BD41F480114FF0000E76
:1009B000013C90E645EA060E8DE60CEA135594EAF2
:1009C0000C0F08BF95EA0C0F3FF43BAF94EA0C0FF5
:1009D0000AD150EA01347FF434AF95EA0C0F7FF46A
:1009E00025AF104619462CE795EA0C0F06D152EABE
:1009F00003353FF4FDAE1046194622E750EA4106A2
:100A000018BF52EA43067FF4C5AE50EA41047FF4B2
:100A10000DAF52EA43057FF4EBAE12E74FF0FF3C17
:100A200006E000BF4FF0010C02E000BF4FF0010CE8
:100A30004DF804CD4FEA410C7FEA6C5C4FEA430C61
:100A400018BF7FEA6C5C1BD001B050EA410C0CBFB0
:100A500052EA430C91EA030F02BF90EA020F002012
:100A6000704710F1000F91EA030F58BF994208BF79
:100A700090422CBFD8176FEAE37040F00100704736
:100A80004FEA410C7FEA6C5C02D150EA013C07D18D
:100A90004FEA430C7FEA6C5CD6D152EA033CD3D0D8
:100AA0005DF8040B704700BF8446104662468C46D2
:100AB0001946634600E000BF01B5FFF7B7FF002805
:100AC00048BF10F1000F01BD4DF808EDFFF7F4FF2E
:100AD0000CBF012000205DF808FB00BF4DF808EDB9
:100AE000FFF7EAFF34BF012000205DF808FB00BFDC
:100AF0004DF808EDFFF7E0FF94BF012000205DF8FE
:100B000008FB00BF4DF808EDFFF7CEFF94BF0120B2
:100B100000205DF808FB00BF4DF808EDFFF7C4FFAB
:100B200034BF012000205DF808FB00BF4FEA410CF4
:100B30007FEA6C5C02D150EA013C0AD14FEA430CD7
:100B40007FEA6C5C02D152EA033C02D14FF0000014
:100B500070474FF0010070474FEA410212F5001252
:100B600015D211D56FF47873B3EB625212D94FEAF4
:100B7000C12343F0004343EA505311F0004F23FADE
:100B800002F018BF404270474FF00000704750EA33
:100B9000013005D111F0004008BF6FF000407047F0
:100BA0004FF00000704700BF53B94AB9002908BF91
:100BB00000281CBF4FF0FF314FF0FF3000F088B924
:100BC000ADF1080C6DE904CE00F006F8DDF804E0A4
:100BD000DDE9022304B070472DE9F047089D8E46F9
:100BE00004468846002B4AD18A42174662D9B2FA97
:100BF00082F64EB1C6F1200301FA06F820FA03F39B
:100C0000B74043EA0808B4404FEA174E1FFA87FC82
:100C1000B8FBFEF1230C0EFB118843EA084301FBED
:100C20000CF29A4209D9FB1801F1FF3080F0EA80FA
:100C30009A4240F2E78002393B449A1AA3B2B2FBCF
:100C4000FEF00EFB102243EA024300FB0CFC9C4525
:100C500009D9FB1800F1FF3280F0D6809C4540F2A4
:100C6000D3803B44023840EA0140A3EB0C0300214F
:100C70001DB1F3400022C5E90032BDE8F0878B4288
:100C800005D90DB1C5E9000100210846F5E7B3FA21
:100C900083F1002946D1734502D3824200F20581D7
:100CA000841A6EEB030201209046002DE5D0C5E9C1
:100CB0000048E2E7002A00F09080B2FA82F6002EA7
:100CC00040F0A4808A1A030C4FEA174E80B2BCB2DF
:100CD0000121B2FBFEFC0EFB1C2243EA024304FB93
:100CE0000CF29A4207D9FB180CF1FF3802D29A4253
:100CF00000F2E080C4469B1AB3FBFEF20EFB1233F7
:100D000040EA034302FB04F49C4207D9FB1802F1BA
:100D1000FF3002D29C4200F2CA8002461B1B42EA0C
:100D20000C40A5E7C1F120068B4022FA06F71F43CD
:100D30000EFA01F420FA06F32EFA06FE4FEA1749DE
:100D4000234300FA01F81FFA87FCBEFBF9F01C0CE4
:100D500009FB10EE44EA0E4400FB0CFEA64502FA25
:100D600001F209D93C1900F1FF3A80F09C80A645B8
:100D700040F2998002383C44A4EB0E041FFA83FE33
:100D8000B4FBF9F309FB13444EEA044403FB0CFCE7
:100D9000A44508D93C1903F1FF3E80F08280A445A8
:100DA0007FD9023B3C4443EA0040A4EB0C04A0FB87
:100DB00002EC64457346E14662D35FD05DB1B8EBA7
:100DC000030264EB090404FA06F622FA01F31E4357
:100DD000CC40C5E9006400214FE7B1FBF2FC010CF7
:100DE00041EA0E4180B240EA01423B4638463C4669
:100DF000B846BE462026B1FBF7F1A2EB080241EA55
:100E00000C4166E7014618E710462CE7C6F12002C0
:100E10002EFA02F3B740B14020FA02F24FEA174E21
:100E20000A43B3FBFEF8BCB20EFB1833110C41EAC7
:100E3000034108FB04F9B04089454FEA104380B2F2
:100E40003ED9791808F1FF3C01D289451FD8A1EBA2
:100E50000901B1FBFEF909FB04F80EFB191192B26E
:100E600042EA0142424529D2BA1809F1FF31C4D2FF
:100E70004245C2D2A9F102013A44BEE7F0459DD2F3
:100E8000BEEB02036CEB070C0138E14696E7A7EBDB
:100E900009094944A8F1020CB1FBFEF909FB04F869
:100EA000DBE773467FE7504666E70846FDE63B44CE
:100EB000023A33E7ACF1020C3B441CE749469CE79D
:100EC000A1EB0901C446B1FBFEF909FB04F8C4E734
:100ED000704700BF80B586B002AF0346FB710023A8
:100EE000BB7307F10E02F91D0A2300930123074883
:100EF00005F00BFD0346FB73FB7B002B01D1BB7B95
:100F000000E0002318461037BD4680BDBC0200201B
:100F100080B582B000AF03460A46FB711346BB7131
:100F2000BB79002B06D001224FF480710D4804F0EC
:100F30000FFE05E000224FF480710A4804F008FE1D
:100F400000228021074804F003FEFB791846FFF7D2
:100F5000C1FF01228021034804F0FAFD00BF0837D9
:100F6000BD4680BD0004024080B582B000AF03469C
:100F7000FB8001224FF480710E4804F0E9FD00224D
:100F800080210C4804F0E4FDFB881B0A9BB2DBB215
:100F90001846FFF79FFFFB88DBB21846FFF79AFF62
:100FA00001228021034804F0D3FD00BF0837BD466D
:100FB00080BD00BF0004024080B582B000AF034690
:100FC0000A46FB711346BB71FB7900211846FFF7F7
:100FD0009FFFBB7901211846FFF79AFF00BF083732
:100FE000BD4680BD80B485B000AF786041F28833E3
:100FF000FB6008E0FB68013BFB60FB68022BF9D853
:101000007B68013B7B607B68022BF6D800BF00BF8A
:101010001437BD465DF8047B7047000080B500AF13
:1010200001220421804804F093FD012280217E48A2
:1010300004F08EFD012240217B4804F089FD01224D
:101040000421794804F084FD0520FFF7CBFF00223E
:101050000421754804F07CFD0520FFF7C3FF012241
:101060000421714804F074FD0520FFF7BBFF012245
:1010700080216D4804F06CFD00211120FFF748FF2E
:101080000A20FFF7AFFF00213620FFF795FF05216B
:101090003A20FFF791FF0021B220FFF739FF01212D
:1010A0000C20FFF735FF01210C20FFF731FF012154
:1010B0000020FFF72DFF01213320FFF729FF012139
:1010C0003320FFF725FF3521B720FFF775FF2821D3
:1010D000BB20FFF771FF3C21C020FFF76DFF01210E
:1010E000C220FFF769FF0B21C320FFF765FF202116
:1010F000C420FFF761FF0F21C620FFF75DFF00212D
:10110000D020FFF705FF0121A420FFF701FF0121F7
:10111000A120FFF7FDFE0021E020FFF7F9FE0121ED
:10112000D020FFF7F5FE01210120FFF7F1FE01219C
:101130000820FFF7EDFE01210F20FFF7E9FE012156
:101140001120FFF7E5FE01212A20FFF7E1FE012132
:101150003620FFF7DDFE01215520FFF7D9FE0121E2
:101160004420FFF7D5FE01213A20FFF7D1FE0121EF
:101170000B20FFF7CDFE01210620FFF7C9FE01215C
:101180001120FFF7C5FE01212020FFF7C1FE00213D
:10119000E120FFF7BDFE0121D020FFF7B9FE0121BC
:1011A0000120FFF7B5FE01210720FFF7B1FE012165
:1011B0000A20FFF7ADFE01210B20FFF7A9FE012158
:1011C0001820FFF7A5FE01213420FFF7A1FE012121
:1011D0004320FFF79DFE01214A20FFF799FE0121E0
:1011E0002B20FFF795FE01211B20FFF791FE012127
:1011F0001C20FFF78DFE01212220FFF789FE01212F
:101200001F20FFF785FE00212920FFF781FEFF2127
:101210005120FFF7D1FEB0215520FFF7CDFE002071
:1012200000F004F800BF80BD0004024080B5ADF5B9
:10123000067D00AF024607F50673A3F212231A805B
:101240004FF49633C7F80C324FF48073A7F80A3284
:101250000023A7F8163221E007F50673A3F2122344
:101260001B881B0A9AB2B7F81632D1B207F506727C
:10127000A2F50472D154B7F81632013307F506729D
:10128000A2F212221288D1B207F50672A2F50472F8
:10129000D154B7F816320233A7F81632B7F816222F
:1012A000B7F80A325B009A42D6DB00212A20FFF70A
:1012B0002FFE01210020FFF72BFE01210020FFF768
:1012C00027FE01210020FFF723FE0121EF20FFF779
:1012D0001FFE00212B20FFF71BFE01210020FFF73E
:1012E00017FE01210020FFF713FE01210120FFF767
:1012F0000FFE01213F20FFF70BFE00212C20FFF7FE
:1013000007FE002280211D4804F022FC01224FF438
:1013100080711A4804F01CFC0023C7F810321DE04D
:10132000D7F80C22D7F81032D21AB7F80A32934203
:1013300028BF1346A7F80832B7F808325B009AB204
:1013400007F108014FF0FF330D4805F09AF9B7F89F
:101350000A32D7F810221344C7F81032D7F81022F7
:10136000D7F80C329A42DBD301228021034804F0E3
:10137000EFFB00BF07F50677BD4680BD00040240C5
:10138000BC02002080B582B000AF03460A46FB8055
:101390001346BB80FB88EF2B24D8BB88B3F5A07F16
:1013A00020D200212A20FFF7B3FD01210020FFF702
:1013B000AFFDFB88DBB201211846FFF7A9FD002134
:1013C0002B20FFF7A5FDBB881B0A9BB2DBB20121D6
:1013D0001846FFF79DFDBB88DBB201211846FFF7D9
:1013E00097FD00E000BF0837BD4680BD90B585B0D1
:1013F00000AF0446084611461A462346FB800346C2
:10140000BB800B46FB701346BB70BB887B810023FF
:101410003B81FB88EF2B00F29580BB88B3F5A07F62
:1014200080F0908000212A20FFF772FD012100202A
:10143000FFF76EFDFB88DBB201211846FFF768FD60
:10144000FB881B0A9BB2DBB201211846FFF760FD47
:10145000FB88DBB201211846FFF75AFD00212B2043
:10146000FFF756FDBB881B0A9BB2DBB20121184671
:10147000FFF74EFDBB88DBB201211846FFF748FDA0
:10148000BB881B0A9BB2DBB201211846FFF740FD67
:10149000BB88DBB201211846FFF73AFD00212C2062
:1014A000FFF736FD0023FB7347E0BB780C2B0DD113
:1014B000FB78A3F12002F97B244813465B00134418
:1014C0009B0003440B441B787B730CE0BB78102B10
:1014D00009D1FB78A3F12002FB7B1D4912010A44CC
:1014E00013441B787B730023BB7320E097F90D3006
:1014F000002B07DA3B8C3B813A89B988FB88184678
:1015000000F074F87B7B5B007B73BB880133BB808E
:10151000BA887B89D21ABB789A4205D17B89BB8075
:10152000FB880133FB8005E0BB7B0133BB73BB7BD6
:10153000072BDBD9FB7B0133FB73FA7BBB789A4229
:10154000B3D300E000BF1437BD4690BD00D90008FA
:1015500074DD000890B587B002AFBA601A46034642
:10156000FB810B46BB811346FB71FB89EF2B39D8FE
:10157000BB89B3F5A07F35D22FE0FA89FB795B08F0
:10158000DBB2C3F1F0039A4213DD0023FB81FB7948
:101590009AB2BB891344BB81BA89FB79C3F5A073A6
:1015A0009A4206DD0023FB81FB89BB810020FFF707
:1015B0003DFEBB681A78FC79B989F8893B8C0093A9
:1015C0002346FFF713FFFB795B08DBB21A46FB8962
:1015D0001344FB81BB680133BB60BB681B78002BE5
:1015E000CBD100E000BF1437BD4690BD80B582B0BE
:1015F00000AF0346FB800B46BB8013467B80FB8815
:10160000EF2B12D8BB88B3F5A07F0ED2BA88FB8827
:1016100011461846FFF7B6FE00212C20FFF778FC94
:101620007B881846FFF7A0FC00E000BF0837BD46E6
:1016300080BD90B58BB000AF0446084611461A46EF
:101640002346FB800346BB800B467B8013463B80D2
:101650007A88FB88D31A3B623A88BB88D31AFB612D
:101660003B6A002BB8BF5B42BB61FA887B889A4219
:1016700001D2012301E04FF0FF337B61FB69002BB6
:10168000B8BF5B425B423B61BA883B889A4201D259
:10169000012301E04FF0FF33FB60BA693B6913445B
:1016A0007B62FB88EF2B36D8BB88B3F5A07F32D2A4
:1016B0007B88EF2B2FD83B88B3F5A07F2BD23A8FB6
:1016C000B988FB881846FFF791FF7B6A5B00BB6017
:1016D000BA683B699A420CDBFA887B889A421CD034
:1016E0007A6A3B6913447B627B699AB2FB88134434
:1016F000FB80BA68BB699A42E1DCBA883B889A42AF
:101700000DD07A6ABB6913447B62FB689AB2BB88CE
:101710001344BB80D3E700BF02E000BF00E000BF7E
:101720002C37BD4690BD90B587B000AF0446084643
:1017300011461A462346FB800346BB800B467B803E
:1017400013463B807B885B427B6100233B617B8847
:10175000C3F101035B00FB60FB88EF2B66D8BB88FD
:10176000B3F5A07F62D27B699BB2FA88D31A98B294
:101770003B699AB2BB8813449BB23A881946FFF77B
:1017800035FF7B699AB2FB88134498B23B699AB2E1
:10179000BB8813449BB23A881946FFF727FF7B6941
:1017A0009AB2FB88134498B23B699BB2BA88D31AA9
:1017B0009BB23A881946FFF719FF7B699BB2FA88FA
:1017C000D31A98B23B699BB2BA88D31A9BB23A88B3
:1017D0001946FFF70BFFFB68BB60BA683B699A428A
:1017E00013DC3B6901333B613B695B000133FA6801
:1017F0001344FB607B695B423A699A4205D1BA683F
:101800007B699A4201DC0023BB60BA687B699A421B
:1018100008DD7B6901337B617B695B000133FA681A
:101820001344FB607B69002B9DDD00E000BF1C378B
:10183000BD4690BD90B585B000AF04460846114640
:101840001A462346FB800346BB800B467B8013462B
:101850003B80FB88EF2B24D8BB88B3F5A07F20D238
:101860000023FB8118E00023BB810EE0FA88BB89CE
:10187000134498B2BA88FB8913449BB23A8C194638
:10188000FFF7B4FEBB890133BB81BA897B889A42DA
:10189000ECD3FB890133FB81FA893B889A42E2D37E
:1018A00000E000BF1437BD4690BD90B585B000AFD5
:1018B0000446084611461A462346FB800346BB8071
:1018C0000B467B8013463B80BA887B88134440F2EA
:1018D0003F129342A8BF1346BB81FB88EF2B14D85D
:1018E000BB88B3F5A07F10D2BB88FB8108E03A88A3
:1018F000F989FB881846FFF779FEFB890133FB81E4
:10190000FA89BB899A42F2D300E000BF1437BD4682
:1019100090BD90B585B000AF0446084611461A4602
:101920002346FB800346BB800B467B8013463B80EF
:10193000FA887B881344EF2BA8BFEF23BB81FB8879
:10194000EF2B14D8BB88B3F5A07F10D2FB88FB81A6
:1019500008E03A88B988FB891846FFF747FEFB89FB
:101960000133FB81FA89BB899A42F2D300E000BFC0
:101970001437BD4690BD90B583B000AF044608460D
:1019800011461A462346FB800346BB800B467B80EC
:1019900013463B80FB88EF2B24D8BB88B3F5A07F90
:1019A00020D23B8B7A88B988F888FFF7B2FFBA88D3
:1019B0003B88134499B23B8B7A88F888FFF7A9FFDC
:1019C0003B8B3A88B988F888FFF76FFFFA887B88E5
:1019D000134498B23B8801339AB23B8BB988FFF726
:1019E00064FF00E000BF0C37BD4690BD80B483B0FB
:1019F00000AF786000BF0C37BD465DF8047B7047D0
:101A000080B483B000AF0346FB7197F90730002B19
:101A10000BDBFB7903F01F02074997F907305B09DD
:101A2000012000FA02F241F8232000BF0C37BD4626
:101A30005DF8047B704700BF00E100E080B483B034
:101A400000AF0346FB7197F90730002B12DBFB79DF
:101A500003F01F020A4997F907305B09012000FAD9
:101A600002F2203341F82320BFF34F8F00BFBFF3B2
:101A70006F8F00BF00BF0C37BD465DF8047B704719
:101A800000E100E080B584B000AF0346FB71FB7954
:101A9000032B17D801A252F823F000BFAD1A00089B
:101AA000B31A0008B91A0008BF1A00080023FB7314
:101AB0000AE06023FB7307E0C023FB7304E0A0236C
:101AC000FB7301E00023FB73FB7B19463620FFF715
:101AD00073FA00BF1037BD4680BD00BF90B585B01A
:101AE00002AF4FF6FF70FFF7A1FB1F2300931023F7
:101AF0002E4A1E211E20FFF72DFD1F2300931023C9
:101B00002B4A38215820FFF725FD1F23F0225221B0
:101B10000020FFF7FEFE1F2300931023254A5C21BF
:101B20001420FFF717FD1F2300931023224A702172
:101B30001420FFF70FFD1F23009310231F4A842159
:101B40001420FFF707FD1F23009310231C4A982140
:101B50001420FFF7FFFC1F23F022B2210020FFF723
:101B6000D8FE1F2300931023164AC8211420FFF724
:101B7000F1FC5023FB80FA23BB8050237B80282379
:101B80003B803B887A88B988F8881F240094FFF747
:101B9000F2FE1F23009310230B4A4FF48371682039
:101BA000FFF7D8FC00BF0C37BD4690BD24D6000817
:101BB00040D600084CD6000858D6000874D6000855
:101BC00090D60008ACD60008C8D6000880B582B010
:101BD00002AF1F20FFF72AFB4FF6FF7300931E236F
:101BE00091220A210A20FFF725FE002300931023EB
:101BF0005E4A12210F20FFF7ADFC5D4B1B78DBB274
:101C0000002B09D04FF4FC63009346235A22322163
:101C10001420FFF70FFE08E04FF6FF7300934623F2
:101C20005A2232211420FFF705FE514B1B78DBB2FC
:101C3000002B02D04FF6FF7300E000230093102327
:101C40004C4A4B211E20FFF785FC4B4B1B78DBB227
:101C5000002B09D04FF4FC63009346235A22322113
:101C60008220FFF7E7FD08E04FF6FF73009346235D
:101C70005A2232218220FFF7DDFD3F4B1B78DBB279
:101C8000002B02D04FF6FF7300E0002300931023D7
:101C90003A4A4B218C20FFF75DFC394B1B78DBB2B5
:101CA000002B09D04FF4FC63009346235A228C2169
:101CB0001420FFF7BFFD08E04FF6FF7300934623A3
:101CC0005A228C211420FFF7B5FD2D4B1B78DBB277
:101CD000002B02D04FF6FF7300E000230093102387
:101CE000284AA5211E20FFF735FC274B1B78DBB2C5
:101CF000002B09D04FF4FC63009346235A228C2119
:101D00008220FFF797FD08E04FF6FF73009346230C
:101D10005A228C218220FFF78DFD1B4B1B78DBB2F2
:101D2000002B02D04FF6FF7300E000230093102336
:101D3000164AA5218C20FFF70DFC4FF6FF73009388
:101D40001E2346224FF48C71A020FFF773FD002361
:101D5000009310230E4A4FF49071AA20FFF7FAFB6C
:101D6000012006F01FF800BFBD4680BDD0D6000898
:101D70007A030020E4D600087B030020F0D6000898
:101D80007C030020FCD600087D03002008D7000853
:101D900014D7000880B58EB002AF78607B681B78DE
:101DA00087F82F307B6801331B68BB604FF6FF70EC
:101DB000FFF73CFA002300931023214A0A213C201C
:101DC000FFF7C8FB1F2300939623C822322114205B
:101DD000FFF7D1FD97F82F3007F10C00194A2021A9
:101DE00009F08AFA07F10C021F23009310234B21FC
:101DF0001E20FFF7AFFBBB681846FEF7A5FB0246A7
:101E00000B4607F10C00CDE900230F4A202109F011
:101E100073FA07F10C021F23009310236E211E207A
:101E2000FFF798FB47F6EF3300931023074ADC21B6
:101E30002820FFF78FFB00BF3037BD4680BD00BFB5
:101E40001CD7000828D7000834D7000844D700085A
:101E500080B588B002AF7B600346FB730B46BB8145
:101E600013467B81FB7B174AD25C3B6A1A70FB7B73
:101E7000144AD35C002B02D04FF4FC6301E04FF610
:101E8000FF737989B889009346235A22FFF7D2FC61
:101E9000FB7B0C4AD35C002B02D04FF6FF7300E0B3
:101EA0000023FB82BB890A3398B27B89193399B22C
:101EB000FB8A009310237A68FFF74CFB00BF1837AA
:101EC000BD4680BD7403002080B596B002AF0346C6
:101ED000FB71FB79032B63D8FB79334AD35C002B6E
:101EE00014BF01230023DBB283F00103DBB21A46E7
:101EF000FB7902F00102D1B22B4AD154FB79032BBA
:101F00002ED801A252F823F0191F00082B1F000839
:101F10003D1F00084F1F0008244B0093244B322222
:101F200014210020FFF794FF1BE0224B0093224B6B
:101F3000322282210120FFF78BFF12E01F4B00931A
:101F40001F4B8C2214210220FFF782FF09E01D4B5A
:101F500000931D4B8C2282210320FFF779FF00E0C4
:101F600000BFFB79194A52F82320FB790E49CB5C5C
:101F7000002B01D0164B00E0164B07F10C0000932C
:101F80001346154A402109F0B7F9F864FB6C9AB280
:101F900007F10C014FF0FF33104805F027FA00E07D
:101FA00000BF5037BD4680BD740300207A03002077
:101FB000E4D600087B030020F0D600087C03002054
:101FC000FCD600087D03002008D700080C00002084
:101FD00058D700085CD7000860D700081403002019
:101FE00080B582B000AF0A4801F0B0FF4FF0FF317A
:101FF000074802F0B0F8064802F038F90346FB80C3
:10200000034802F075F8FB8818460837BD4680BDC6
:102010001002002080B582B000AFFFF7E1FF034659
:10202000FB80114B1B88BB80104B1B887B80FA8880
:10203000BB88D31A07EE903AF8EEE77A9FED0C7A58
:1020400067EE876A7A88BB88D31A07EE903AB8EEB3
:10205000E77AC6EE877AB3EE0E7A77EE877AB0EE3D
:10206000670A0837BD4680BD2C7AFF1F2E7AFF1FF6
:102070000000A04280B582B000AF786039603B6854
:102080001A467968044809F030FA044A3B6813603C
:1020900000BF0837BD4680BD900300209803002094
:1020A00080B582B000AF78603960074B1B681A4674
:1020B0000649786809F019FA034B1A683B681A60F8
:1020C00000BF0837BD4680BD980300209003002064
:1020D00080B400AF0C4BDB6803F08073002B05D19C
:1020E000094BDB68084A43F08073D360074B00223A
:1020F0005A60064B1B68054A43F00103136000BF9A
:10210000BD465DF8047B7047F0ED00E0001000E094
:1021100080B485B000AF78600D4B5B68FB600D4B01
:102120001B680D4AA2FB03239A0C7B6802FB03F396
:10213000BB6000BF064B5A68FB68D31ABA689A4264
:10214000F8D800BF00BF1437BD465DF8047B704768
:10215000001000E01C00002083DE1B4380B586B029
:1021600000AF03463960FB80FB88002B06D10023BB
:10217000002210211D4803F0B4FA33E0FB881C4A0A
:10218000B2FBF3F33B6101F091FEF86000237B6149
:102190001CE040F6FF7300221021144803F0A1FA5E
:1021A0003869FFF7B5FF0023002210210F4803F024
:1021B00098FA3869FFF7ACFF01F078FE0246FB6839
:1021C000D31A7B617A693B689A4204D27A693B6888
:1021D0009A42DED300E000BF002300221021034812
:1021E00003F07FFA1837BD4680BD00BFA80200206B
:1021F00020A1070080B58AB000AF01F0FBF92F4B9A
:102200001B682E4A23F0010313604FF0FF30FFF7E5
:1022100015FC1420FFF712FC4020FFF70FFC0C20E8
:10222000FFF70CFC3420FFF709FC254B10225A6104
:102230000221244802F0A4FE0221234802F0A0FE5D
:1022400006E03B1D07F10C0200211F4802F028FDAB
:1022500000211D4802F046FE0346002BF1D172B664
:1022600000BF0121002003F0BFFC62B600BF134B8A
:102270001B68124A43F0010313604FF0FF30FFF771
:10228000BFFB01F0C9F91420FFF7BAFB4020FFF7AC
:10229000B7FB0C20FFF7B4FB3420FFF7B1FB0221A2
:1022A000084802F047FE0221074802F043FE074BB0
:1022B00001221A7000BF2837BD4680BD10E000E043
:1022C000003C014058020020800200207E030020D4
:1022D000B0B586B000AF01F0B3FD00F08FF800F0AC
:1022E00091FA00F02FFA00F045F900F0A1F900F0A2
:1022F000FFF900F05DFA00F0EBF8FEF78FFE01F059
:10230000E3FA01F0E5FB01F01DFC0220FFF7BAFB48
:10231000244B01221A70244B00221A70234B3C1DBF
:102320001D460FCD0FC42B682380391D4FF0FF339E
:1023300011221F4805F05AF805F058FC1D4A0021EB
:102340001D4805F09DFC03461C4A13601C4A0021F1
:102350001C4805F095FC03461B4A13601B4A0021EC
:102360001B4805F08DFC03461A4A13601A4A0021E7
:102370001A4805F085FC0346194A1360194A0021E2
:10238000194805F07DFC0346184A1360184A0021DD
:10239000184805F075FC0346174A136005F04AFC1F
:1023A00000BFFDE7080000200900002068D70008F2
:1023B0001403002064E30008E52B00085C03002000
:1023C00088E30008DD2C000860030020ACE300086F
:1023D000552D000864030020D0E30008952D000867
:1023E00068030020F4E30008252E00086C03002099
:1023F00018E40008AD2E00087003002080B594B0EA
:1024000000AF07F1200330220021184608F0EDFF4D
:1024100007F10C0300221A605A609A60DA601A61B0
:102420000023BB60284B1B6C274A43F08053136486
:10243000254B1B6C03F08053BB60BB6800237B60A3
:10244000224B1B68214A43F4804313601F4B1B68D7
:1024500003F480437B607B6802233B620123FB62C1
:1024600010233B630223BB630023FB6310233B6405
:102470004FF480737B640223BB640423FB6407F185
:102480002003184603F0EAFB0346002B01D000F0BE
:1024900012FE0F23FB6002233B6180237B614FF41C
:1024A0008053BB614FF48053FB6107F10C030221A1
:1024B000184603F04BFE0346002B01D000F0FBFD55
:1024C00000BF5037BD4680BD00380240007000405C
:1024D00080B584B000AF3B4600221A605A609A6013
:1024E000DA60214B214A1A601F4B00225A601E4BB2
:1024F00000229A601C4B00221A611B4B00221A76A4
:10250000194B002283F82020174B0022DA62164B69
:10251000174A9A62144B0022DA60134B0122DA61E7
:10252000114B002283F830200F4B01225A610E48D4
:1025300001F0C8FC0346002B01D000F0BCFD1023C5
:102540003B6001237B600723BB603B46194606487E
:1025500001F09AFE0346002B01D000F0ACFD00BF55
:102560001037BD4680BD00BF100200200020014092
:102570000100000F80B58AB000AF2B4B2B4A1A60C8
:10258000294B10225A60284B00229A60264B0022C9
:10259000DA60254B4FF480321A61234B00225A61D6
:1025A000214B00221A76204B00225A761E4B002225
:1025B0009A761D4B0022DA761B4B00221A771A4BB3
:1025C00000225A77184802F07DF80346002B01D00C
:1025D00000F071FD3B4628220021184608F005FF57
:1025E0000123FB6101233B623B4619460E4802F082
:1025F00065F90346002B01D000F05DFD0A4802F0AA
:102600003BFA0346002B01D000F055FD022106489D
:1026100002F090FC0346002B01D000F04CFD00BFFF
:102620002837BD4680BD00BF58020020006400402E
:1026300080B58AB000AF2C4B2C4A1A602A4B10226E
:102640005A60294B00229A60274B0022DA60264B01
:102650004FF480321A61244B00225A61224B00222F
:102660001A76214B00225A761F4B00229A761E4B77
:102670000022DA761C4B00221A771B4B00225A7775
:10268000194802F01FF80346002B01D000F013FD9B
:102690003B4628220021184608F0A7FE0E237B6146
:1026A0000123FB6101233B623B4619460E4802F0C1
:1026B00005F90346002B01D000F0FDFC0A4802F0AA
:1026C000DBF90346002B01D000F0F5FC022106489F
:1026D00002F030FC0346002B01D000F0ECFC00BF00
:1026E0002837BD4680BD00BF800200200068004042
:1026F00080B582B000AF3B4600221A605A600F4B93
:102700000F4A1A600D4802F073FF0346002B01D0F8
:1027100000F0D1FC00233B6000237B603B4610228D
:102720001946064803F007F80346002B01D000F0D5
:10273000C2FC00BF0837BD4680BD00BFA802002014
:102740000074004080B500AF174B184A1A60164B52
:102750004FF482725A60144B00229A60124B00228E
:10276000DA60114B02221A610F4B01225A610E4BA3
:102770004FF400729A610C4B1022DA610A4B00226E
:102780001A62094B00225A62074B00229A62064BDA
:102790000A22DA62044803F0EBFE0346002B01D064
:1027A00000F089FC00BF80BDBC0200200030014069
:1027B00080B500AF114B124A1A60104B4FF41652FD
:1027C0005A600E4B00229A600C4B0022DA600B4BD1
:1027D00000221A61094B0C225A61084B00229A61AF
:1027E000064B0022DA61054804F0B0FD0346002BD9
:1027F00001D000F060FC00BF80BD00BF14030020CA
:10280000004C004080B58AB000AF07F114030022ED
:102810001A605A609A60DA601A6100233B61434B88
:102820001B6B424A43F080031363404B1B6B03F066
:1028300080033B613B690023FB603C4B1B6B3B4AC5
:1028400043F001031363394B1B6B03F00103FB607F
:10285000FB680023BB60354B1B6B344A43F002031B
:102860001363324B1B6B03F00203BB60BB68002396
:102870007B602E4B1B6B2D4A43F0040313632B4BE1
:102880001B6B03F004037B607B68002240F2813104
:10289000274803F05DF901224021254803F058F94B
:1028A00041237B610123BB610023FB6101233B6268
:1028B00007F1140319461E4802F096FF10237B61AE
:1028C0004FF40413BB610123FB6107F114031946A4
:1028D000174802F089FF4FF4C0737B610123BB618D
:1028E0000023FB6103233B6207F1140319461048E0
:1028F00002F07AFF4FF400737B610123BB61002378
:10290000FB6100233B6207F114031946084802F0FB
:102910006BFF002205210A2002F040FE0A2002F08F
:1029200059FE00BF2837BD4680BD00BF00380240B9
:102930000004024080B483B000AF0346FB8000BFB8
:102940000C37BD465DF8047B7047000090B5A1B020
:1029500002AF78607B681B68214A93423CD107F143
:102960004C0307F1540200211E4802F099F9034676
:10297000002B30D17B6D40F2213293422CD17B6E03
:10298000042B29D907F14C0305211846FFF772FBE8
:1029900097F84C3087F87730D7F84D30BB6497F80C
:1029A0007740BB6C1846FDF7CFFD02460B4607F19A
:1029B0000800CDE9002323460B4A402108F09CFC87
:1029C00038673B6F9AB207F108014FF0FF330748B1
:1029D00004F00CFD00E000BF7C37BD4690BD00BF99
:1029E00000680040800200207CD70008140300200B
:1029F00080B485B000AFBA607B600346FB810B46B4
:102A0000BB81BA8913461B019B1A1B019B1A104AF2
:102A100082FB03121A44D212DB17D31A9AB2BB6894
:102A20001A80FA8913469B0013449B019B1A084A9B
:102A300082FB03121A44D212DB17D31A9AB27B68B4
:102A40001A8000BF1437BD465DF8047B704700BF95
:102A50008100088080B582B000AF002000F090FFB8
:102A60000346002B00F0A8803A1DBB1D11461846F6
:102A700001F054F9F888B9883B46BA1CFFF7B8FF53
:102A8000504B1B7883F00103DBB2002B00F09780E2
:102A90004C4B01221A704C4B1B78DBB2002B25D01B
:102AA0007A884A4B1B889A42C0F089807B881A46F4
:102AB000464B1B881946464B1B880B449A427EDACC
:102AC0003A88444B1B889A4279D33B881A46414B3B
:102AD0001B881946404B1B880B449A426FDA3A4BCD
:102AE00000221A703D4B01221A7068E03C4B1B78A3
:102AF000DBB2002B06D00320FFF7E6F9384B0022AB
:102B00001A705CE0354B1B78DBB2002B57D07B880A
:102B10009F2B11D97B88E52B0ED83B88B3F58C7F92
:102B20000AD33B88B3F59B7F06D22C4B00221A7048
:102B3000254B01221A7042E07B88132B0CD97B882D
:102B40006D2B09D83B88312B06D93B88772B03D8CE
:102B50000020FFF7B9F932E07B88812B0CD97B8804
:102B6000DB2B09D83B88312B06D93B88772B03D840
:102B70000120FFF7A9F922E07B88132B0CD97B8871
:102B80006D2B09D83B888B2B06D93B88D12B03D8DA
:102B90000220FFF799F912E07B88812B0FD97B88FF
:102BA000DB2B0CD83B888B2B09D93B88D12B06D843
:102BB0000320FFF789F902E0024B00221A70083760
:102BC000BD4680BD9C0300200800002000000020BE
:102BD0000400002002000020060000200900002060
:102BE0007E030020B0B588B000AF7860304B07F1AD
:102BF00008041D460FCD0FC495E80300206004347F
:102C0000218002340B0C237007F108014FF0FF33D1
:102C10001622284804F0EAFB274B00221A70274BA3
:102C200001221A70254B1B78DBB2002B0FD0244BEE
:102C30001B78DBB283F00103DBB2002B07D0FEF779
:102C40004DFF1F4B01221A701E4B00221A701A4BA7
:102C50001B78DBB2002B27D01A4B1B78DBB283F03A
:102C60000103DBB2002B1FD0174B00221A70174B49
:102C700000221A70164B00221A70164B00221A708E
:102C8000154B00221A70144B00225A70124B00226E
:102C90009A70114B0022DA70FEF798FF094B01225F
:102CA0001A70074B00221A70322005F07BF8B9E742
:102CB00098D7000814030020090000200800002015
:102CC00078030020790300207A0300207B03002092
:102CD0007C0300207D03002074030020B0B588B081
:102CE00000AF7860144B1B68144A1360144B1B68C8
:102CF000124A5360134B1B68104A9360124B1B68B7
:102D00000E4AD360114B07F108041D460FCD0FC4C6
:102D100095E8030020600434217007F108014FF0AA
:102D2000FF3314220A4804F061FBFFF793FE3220C0
:102D300005F038F800BFF8E76403002080030020A6
:102D4000680300206C03002070030020B0D7000847
:102D50001403002080B582B000AF78600B4B1B7865
:102D6000DBB2002B08D00121094802F00AFF4FF422
:102D70007A7005F017F8F1E700220121044802F00B
:102D8000E7FE642005F00EF8E8E700BF7A030020B4
:102D90000004024080B58EB000AF786007F11C03DC
:102DA00000221A605A609A60DA601A615A6140F231
:102DB0002133FB610523FB62174807F0FDFC034646
:102DC00087F83730154B1B78DBB2002B1FD0FFF78D
:102DD00021F9F0EE407AC7ED037A97F837303B756A
:102DE000FB68C7F815300023FB76FB7EBB76BB7E05
:102DF0007B7607F1100307F1140207F11C01084864
:102E000001F07EFE4FF4FA7004F0CCFFDAE76420A4
:102E100004F0C8FFD6E700BFC8D700087B03002036
:102E20005802002080B598B002AF7860194B1B782B
:102E3000DBB2002B2AD007F1480207F14C03114600
:102E40001846FFF72DF907F14C031846FEF7A2FFCD
:102E500040F6B83004F0A6FF0E4B00221A700E4B5D
:102E600000221A7007F108000C4B00930C4B0D4A1E
:102E7000402108F041FA78657B6D9AB207F10801AC
:102E80004FF0FF33084804F0B1FACFE7642004F0B4
:102E900089FFCBE77C030020790300205CD7000882
:102EA0000CD6000860D700081403002080B59AB043
:102EB00000AF7860082387F8623042F21073FB6538
:102EC00042F22833BB65FFF703F910216A4802F08C
:102ED000B1FB002300221021674802F002FC674B7F
:102EE0001B78DBB2002B00F0C38007F10803644AB3
:102EF0004021184608F000FA78657B6D9AB207F118
:102F000008014FF0FF335F4804F070FA00F0CEFF85
:102F1000386500237B66002387F8633072E000F099
:102F2000C5FF02463B6DD31A7B667A6EFB6D9A42F3
:102F30006DD2FA6D7B6ED31AFB64FA6DBB6DD31A3A
:102F4000FA6C9A4216D807F10800FB6C4E4A4021F1
:102F500008F0D2F978657B6D9AB207F108014FF05D
:102F6000FF33484804F042FAF96C4FF48370FFF7DE
:102F7000F5F84FE007F10800FB6C434A402108F0E8
:102F8000BBF978657B6D9AB207F108014FF0FF330A
:102F90003C4804F02BFA97F863303C4A32F813307F
:102FA0004FF4FA711846FFF7D9F800F07FFF024698
:102FB0003B6DD31A7B667A6EFB6D9A4229D2002351
:102FC000002210212C4802F08CFB00F06FFFB86447
:102FD00000BF00F06BFF0246BB6CD31A312BF8D94F
:102FE00097F86330013397F86220B3FBF2F101FBED
:102FF00002F29B1A87F8633000F058FF02463B6DDF
:10300000D31A7B667A6EFB6D9A4288D302E000BFCA
:1030100000E000BF002300221021174802F061FBEE
:1030200007F108031A4A4021184608F065F9786547
:103030007B6D9AB207F108014FF0FF33114804F09D
:10304000D5F9FFF7D7F807F10803124A40211846CF
:1030500008F052F978657B6D9AB207F108014FF0DC
:10306000FF33084804F0C2F9044B00221A7036E717
:10307000642004F097FE32E7A80200207D030020C0
:10308000CCD7000814030020E8D700083CE400086F
:1030900008D8000824D8000880B582B000AF786056
:1030A0007B681B68B3F1804F01D100F0EBFE00BFDD
:1030B0000837BD4680BD80B400AF72B600BF00BF08
:1030C000FDE7000080B582B000AF00237B60164BA7
:1030D0005B6C154A43F480435364134B5B6C03F4FD
:1030E00080437B607B6800233B600F4B1B6C0E4A68
:1030F00043F0805313640C4B1B6C03F080533B6014
:103100003B6800220F216FF0010002F047FA002215
:103110000521012002F042FA012002F05BFA00BF13
:103120000837BD4680BD00BF0038024080B485B07E
:1031300000AF78607B681B680B4A93420DD1002377
:10314000FB600A4B5B6C094A43F480735364074B82
:103150005B6C03F48073FB60FB6800BF1437BD46F3
:103160005DF8047B704700BF00200140003802403A
:1031700080B58CB000AF786007F11C0300221A60A4
:103180005A609A60DA601A617B681B685B4A9342F6
:103190004ED15B4B1B680133594A1360584B1B6877
:1031A000012B0DD10023BB61564B1B6C554A43F0DC
:1031B00000731364534B1B6C03F00073BB61BB695A
:1031C00000237B614F4B1B6B4E4A43F0010313639B
:1031D0004C4B1B6B03F001037B617B694FF4C053C5
:1031E000FB6102233B6200237B620323BB62092352
:1031F000FB6207F11C031946434802F0F5FA00226E
:103200000521132002F0CAF9132002F0E3F900228D
:103210000521142002F0C2F9142002F0DBF900228B
:103220000521152002F0BAF9152002F0D3F960E06B
:103230007B681B68354A93425BD100233B61314B6D
:103240001B6C304A43F0806313642E4B1B6C03F0FD
:1032500080633B613B692A4B1B680133284A13603A
:10326000274B1B68012B0DD10023FB60254B1B6CEA
:10327000244A43F000731364224B1B6C03F0007369
:10328000FB60FB680023BB601E4B1B6B1D4A43F0B9
:10329000020313631B4B1B6B03F00203BB60BB6891
:1032A0004FF44053FB6102233B6200237B62032304
:1032B000BB620923FB6207F11C031946144802F0A4
:1032C00093FA002205213F2002F068F93F2002F026
:1032D00081F900220521402002F060F9402002F02F
:1032E00079F900220521412002F058F9412002F02D
:1032F00071F900BF3037BD4680BD00BF006400409B
:10330000A003002000380240000002400068004096
:103310000004024080B58AB000AF786007F1140362
:1033200000221A605A609A60DA601A617B681B6832
:10333000174A934227D100233B61164B1B6C154A59
:1033400043F000531364134B1B6C03F000533B61B9
:103350003B690023FB600F4B1B6B0E4A43F00103DC
:1033600013630C4B1B6B03F00103FB60FB68202312
:103370007B610323BB610023FB6107F11403194642
:10338000054802F031FA00BF2837BD4680BD00BFB6
:1033900000740040003802400000024080B58AB04E
:1033A00000AF786007F1140300221A605A609A6037
:1033B000DA601A617B681B68284A934249D100236E
:1033C0003B61274B5B6C264A43F480535364244B88
:1033D0005B6C03F480533B613B690023FB60204B33
:1033E0001B6B1F4A43F0010313631D4B1B6B03F060
:1033F0000103FB60FB680023BB60194B1B6B184A81
:1034000043F002031363164B1B6B03F00203BB6014
:10341000BB68C0237B610223BB610023FB610323E4
:103420003B6205237B6207F1140319460D4802F045
:10343000DBF908237B610223BB610023FB610323CB
:103440003B6205237B6207F114031946064802F02C
:10345000CBF900BF2837BD4680BD00BF003001401A
:1034600000380240000002400004024080B58AB0EB
:1034700000AF786007F1140300221A605A609A6066
:10348000DA601A617B681B68194A93422CD10023C9
:103490003B61184B1B6C174A43F400231364154B14
:1034A0001B6C03F400233B613B690023FB60114B61
:1034B0001B6B104A43F0040313630E4B1B6B03F0AA
:1034C0000403FB60FB684FF440637B610223BB6134
:1034D0000023FB6103233B6208237B6207F1140393
:1034E0001946054802F080F900BF2837BD4680BD67
:1034F000004C0040003802400008024080B58EB009
:1035000000AF78600023FB620023BB620023FB60F6
:10351000344B1B6C334A43F001031364314B1B6C77
:1035200003F00103FB60FB6807F1100207F11403CD
:103530001146184602F0EAFF3B6AFB62FB6A002B69
:1035400003D102F0BBFF786304E002F0B7FF03464B
:103550005B007B637B6B244AA2FB03239B0C013B38
:10356000BB62224B4FF080421A60204B40F2E732A0
:10357000DA601E4ABB6A53601C4B00221A611B4B67
:1035800000229A60194B00229A61184803F042FC0D
:10359000034687F8333097F83330002B1BD113489C
:1035A00003F092FC034687F8333097F83330002B52
:1035B00011D11C2002F00EF87B680F2B08D80022D6
:1035C00079681C2001F0EAFF094A7B68136002E079
:1035D000012387F8333097F8333018463837BD4623
:1035E00080BD00BF0038024083DE1B43A4030020DF
:1035F0002000002080B400AF064B1B68DA68054B42
:103600001B6822F00102DA6000BFBD465DF8047B52
:10361000704700BFA403002080B400AF064B1B68B6
:10362000DA68054B1B6842F00102DA6000BFBD4654
:103630005DF8047B704700BFA403002080B400AF96
:1036400000BFFDE780B400AF00BFFDE780B400AF6E
:1036500000BFFDE780B400AF00BFFDE780B400AF5E
:1036600000BFFDE780B400AF00BFBD465DF8047B3E
:10367000704780B500AF02F0D7FA00BF80BD80B5BB
:1036800000AF102002F098FA00BF80BD80B500AFF7
:10369000024801F09CFC00BF80BD00BF5802002022
:1036A00080B500AF024801F092FC00BF80BD00BFB2
:1036B0005802002080B500AF024801F088FC00BF2E
:1036C00080BD00BF5802002080B500AF024803F063
:1036D0006BFC00BF80BD00BFA403002080B500AF1D
:1036E000024801F074FC00BF80BD00BF80020020D2
:1036F00080B500AF024801F06AFC00BF80BD00BF8A
:103700008002002080B500AF024801F060FC00BFDD
:1037100080BD00BF8002002080B400AF01231846A6
:10372000BD465DF8047B704780B582B000AF78601D
:10373000396007F0ADFE034616221A604FF0FF33E2
:1037400018460837BD4680BD80B582B000AF7860AE
:103750004FF0FF317868FFF7E7FF00BFFDE780B566
:1037600086B000AFF860B9607A6000237B610AE040
:10377000AFF300800146BB685A1CBA60CAB21A7027
:103780007B6901337B617A697B689A42F0DB7B68F5
:1037900018461837BD4680BD80B586B000AFF860CA
:1037A000B9607A6000237B6109E0BB685A1CBA608B
:1037B0001B781846AFF300807B6901337B617A691F
:1037C0007B689A42F1DB7B6818461837BD4680BD9E
:1037D00080B483B000AF78604FF0FF3318460C37E9
:1037E000BD465DF8047B704780B483B000AF78605D
:1037F00039603B684FF400525A60002318460C377A
:10380000BD465DF8047B704780B483B000AF78603C
:10381000012318460C37BD465DF8047B704780B421
:1038200085B000AFF860B9607A600023184614379D
:10383000BD465DF8047B704780B586B000AF786008
:10384000144A154BD31A7B617B693B61134B1B6890
:10385000002B02D1114B124A1A60104B1A687B6878
:1038600013443A699A4207D207F012FE03460C222B
:103870001A604FF0FF3309E0084B1B68FB60074BF1
:103880001A687B681344054A1360FB6818461837AA
:10389000BD4680BD0000022000040000EC030020B3
:1038A000A84E002080B400AF064BD3F88830054AFC
:1038B00043F47003C2F8883000BFBD465DF8047B56
:1038C000704700BF00ED00E080B500AF00F066F982
:1038D00000BF80BD90B585B002AF0346FB800B46AC
:1038E000BB8013467B80FB880C3B98B2FB880D3372
:1038F0009AB2BC88B9887B8800932346FDF799FE6D
:10390000BB880C3B99B2BB880D339CB2FA88F8880F
:103910007B8800932346FDF78CFEFB88013398B229
:10392000BB8801339BB27A881946FDF75FFEFB889E
:10393000013B98B2BB8801339BB27A881946FDF7E8
:1039400055FEFB88013398B2BB88013B9BB27A8855
:103950001946FDF74BFEFB88013B98B2BB88013B43
:103960009BB27A881946FDF741FE7B88B988F888B2
:103970000622FDF7D8FE00BF0C37BD4690BD000003
:1039800080B584B000AF0346FB7110214E4802F0B1
:10399000C7F80346002B72D107F10C0207F10E03A2
:1039A0001146184600F0D1F90346002B00F0828042
:1039B000FB89B3F5805F03D8BB89B3F5805F10D96D
:1039C000424B1B7A03F07F03DAB2404B1A723F4B33
:1039D0004FF6FF72DA803D4BDA883C4B9A80002329
:1039E0006DE0FA89394B9A80BA89384BDA80FB79D5
:1039F000002B33D1354B93ED047ABB8907EE903A17
:103A0000F8EEE77A27EE277A304BB3F90A3007EE63
:103A1000903AF8EEE77A77EE277AFCEEE77A17EE3F
:103A2000903A9AB2294B9A80284B93ED057AFB89FC
:103A300007EE903AF8EEE77A27EE277A234BB3F9B0
:103A40000C3007EE903AF8EEE77A77EE277AFCEE44
:103A5000E77A17EE903A9AB21C4BDA801B4B1B7A2E
:103A60005BB2002B26DB194BC0221A72174B9A88C7
:103A7000164B1A80154BDA88144B5A801AE0134BF8
:103A80001B7A5BB2002B07DA104B1B7A03F07F0323
:103A9000DAB20E4B1A720DE00C4B00221A800B4B5F
:103AA00000225A80094B4FF6FF729A80074B4FF65F
:103AB000FF72DA80054B1B7A23F07F03DBB21846D6
:103AC0001037BD4680BD00BF00040240F003002057
:103AD00080B588B002AF0023FB750023BB824FF690
:103AE000FF70FDF7A3FB4FF4784300931023114AB6
:103AF00028212820FDF72EFD4FF4784214211420B0
:103B0000FFF7E8FE0C4B00221A720B4B4FF000023D
:103B10001A61094B094A1A61074B40F209125A818E
:103B2000054B074A5A61044B40F263129A811837D9
:103B3000BD4680BD64D80008F0030020719090BDA0
:103B40006AC0C0BD80B582B002AF4FF6FF70FDF70E
:103B50006DFB1F2300931023034A0021C820FDF7AB
:103B6000F9FC00BFBD4680BDE0D8000880B586B036
:103B700002AF0346FB710023FB7307F10F02F91D2F
:103B80004FF0FF3300930123034802F0BEFEFB7B9E
:103B900018461037BD4680BDBC02002080B582B0FB
:103BA00000AF01224FF40071064801F0D1FF3A1D29
:103BB000BB1D1146184600F0B1F800BF0837BD46DE
:103BC00080BD00BF0004024080B584B000AF034652
:103BD000FB710023FB8100224FF40071124801F0B9
:103BE000B7FFFB791846FFF7C1FF0020FFF7BEFFC4
:103BF0000346FB81FB891B02FB810020FFF7B6FF18
:103C000003461A46FB891343FB81FB89DB08FB81D2
:103C100001224FF40071044801F09AFFFB89184615
:103C20001037BD4680BD00BF0004024090B587B08C
:103C300000AF0346FB710023BB820023FB750EE03F
:103C4000FC7DFB791846FFF7BFFF03461A46630069
:103C500018333B4423F8102CFB7D0133FB75FB7DAF
:103C6000042BEDD90023FB7535E0FB7D0133BB75DB
:103C70002BE0FB7D5B0018333B4433F8102CBB7DFD
:103C80005B0018333B4433F8103C9A421AD9FB7D51
:103C90005B0018333B4433F8103C7B82BB7DFA7DDC
:103CA0005B0018333B4433F8101C530018333B447B
:103CB0000A4623F8102CBB7D5B0018333B447A8AFC
:103CC00023F8102CBB7D0133BB75BB7D042BD0D9F1
:103CD000FB7D0133FB75FB7D032BC6D90123FB75EF
:103CE0000BE0FB7D5B0018333B4433F8102CBB8AA0
:103CF0001344BB82FB7D0133FB75FB7D032BF0D9A5
:103D0000BB8A054AA2FB03235B087B827B8A184699
:103D10001C37BD4690BD00BFABAAAAAA80B582B031
:103D200000AF786039609020FFF780FF03461A46A5
:103D30007B681A80D020FFF779FF03461A463B685C
:103D40001A8000BF0837BD4680BD80B584B000AF83
:103D50007860396007F10C0207F10E03114618462E
:103D6000FFF7DCFF07F1080207F10A0311461846C6
:103D7000FFF7D4FF7A89FB899A4204D87B893133D3
:103D8000FA89934208DAFA897B899A4228D8FB8912
:103D900031337A89934223DB3A89BB899A4204D82A
:103DA0003B893133BA89934208DABA893B899A420E
:103DB00016D8BB8931333A89934211DBFB891A4605
:103DC0007B8913445B109AB27B681A80BB891A46C0
:103DD0003B8913445B109AB23B681A80012300E0D0
:103DE000002318461037BD4680BD0000DFF834D0F0
:103DF000FFF758FD0C480D490D4A002302E0D45846
:103E0000C4500433C4188C42F9D30A4A0A4C002324
:103E100001E013600432A242FBD307F03FFBFEF740
:103E200057FA70470000022000000020F401002033
:103E3000E8E70008F4010020A84E0020FEE700009B
:103E400080B500AF0E4B1B680D4A43F4007313603E
:103E50000B4B1B680A4A43F480631360084B1B68D2
:103E6000074A43F480731360032001F08CFB0F209A
:103E7000FFF744FBFFF726F90023184680BD00BF7B
:103E8000003C024080B400AF064B1B781A46064B3C
:103E90001B681344044A136000BFBD465DF8047BF1
:103EA000704700BF240000200804002080B400AF49
:103EB000034B1B681846BD465DF8047B704700BF86
:103EC0000804002080B584B000AF78600023FB7345
:103ED0007B68002B01D1012333E07B681B6C002B36
:103EE00009D17868FFF722F97B6800225A647B6861
:103EF000002283F83C207B681B6C03F01003002B2E
:103F000018D17B681B6C23F4885323F0020343F021
:103F100002027B681A64786800F0D8FA7B68002295
:103F20005A647B681B6C23F0030343F001027B6837
:103F30001A6401E00123FB737B68002283F83C20B4
:103F4000FB7B18461037BD4680BD000080B485B0AD
:103F500000AF78600023BB607B6893F83C30012B96
:103F600001D10223B2E07B68012283F83C207B6808
:103F70001B689B6803F00103012B18D07B681B684A
:103F80009A687B681B6842F001029A60524B1B687A
:103F9000524AA2FB03239A0C13465B001344BB60F6
:103FA00002E0BB68013BBB60BB68002BF9D17B68BA
:103FB0001B689B6803F00103012B7AD17B681B6CA3
:103FC00023F4E06323F0010343F480727B681A64F6
:103FD0007B681B685B6803F48063002B07D07B68F9
:103FE0001B6C23F4405343F480527B681A647B6853
:103FF0001B6C03F48053B3F5805F06D17B685B6C68
:1040000023F006027B685A6402E07B6800225A644F
:104010007B68002283F83C20314BFB607B681B6887
:104020006FF022021A60FB685B6803F01F03002B2D
:104030002AD17B681B682B4A934215D07B681B688A
:10404000294A934205D1264B5B6803F01F03002BDE
:104050000AD07B681B68254A934236D1204B5B68A7
:1040600003F01003002B30D17B681B689B6803F0C2
:104070004053002B29D17B681B689A687B681B68BA
:1040800042F080429A6020E07B681B68154A9342A8
:104090001BD17B681B689B6803F04053002B14D135
:1040A0007B681B689A687B681B6842F080429A6054
:1040B0000BE07B681B6C43F010027B681A647B6822
:1040C0005B6C43F001027B685A6400231846143786
:1040D000BD465DF8047B70471C00002083DE1B4357
:1040E0000023014000200140002101400022014046
:1040F00080B483B000AF78607B6893F83C30012BCC
:1041000001D1022321E07B68012283F83C207B68F7
:104110001B689A687B681B6822F001029A607B68C2
:104120001B689B6803F00103002B09D17B681B6CA3
:1041300023F4885323F0010343F001027B681A64DF
:104140007B68002283F83C20002318460C37BD46CC
:104150005DF8047B704780B584B000AF786039604B
:104160000023FB607B681B689B6803F48063B3F5E6
:10417000806F13D17B681B689B6803F48073B3F571
:10418000807F0BD17B681B6C43F020027B681A6434
:104190007B68002283F83C20012363E0FFF786FE62
:1041A000F86021E03B68B3F1FF3F1DD03B68002B76
:1041B00007D0FFF77BFE0246FB68D31A3A689A42A3
:1041C00012D27B681B681B6803F00203022B0BD022
:1041D0007B681B6C43F004027B681A647B680022D6
:1041E00083F83C2003233DE07B681B681B6803F0D9
:1041F0000203022BD6D17B681B686FF012021A6093
:104200007B681B6C43F400727B681A647B681B68D4
:104210009B6803F04053002B23D17B681B7E002B4F
:104220001FD17B681B68DB6A03F47003002B06D088
:104230007B681B689B6803F48063002B11D17B684B
:104240001B6C23F480727B681A647B681B6C03F41C
:104250008053002B05D17B681B6C43F001027B6807
:104260001A64002318461037BD4680BD80B483B061
:1042700000AF78607B681B68DB6C18460C37BD4666
:104280005DF8047B7047000080B485B000AF7860B3
:1042900039600023BB607B6893F83C30012B01D16F
:1042A000022305E17B68012283F83C203B681B6800
:1042B000092B25D97B681B68D9683B681B689BB2B2
:1042C0001A4613465B0013441E3B072202FA03F30F
:1042D000DA437B681B680A40DA607B681B68D96830
:1042E0003B689A683B681B689BB2184603465B00B4
:1042F00003441E3B9A407B681B680A43DA6022E055
:104300007B681B6819693B681B689BB21A46134699
:104310005B001344072202FA03F3DA437B681B684D
:104320000A401A617B681B6819693B689A683B6898
:104330001B689BB2184603465B0003449A407B68A7
:104340001B680A431A613B685B68062B24D87B68AC
:104350001B68596B3B685A6813469B001344053B26
:104360001F2202FA03F3DA437B681B680A405A6390
:104370007B681B68596B3B681B689BB218463B689F
:104380005A6813469B001344053B00FA03F27B680E
:104390001B680A435A634CE03B685B680C2B24D8CB
:1043A0007B681B68196B3B685A6813469B00134473
:1043B000233B1F2202FA03F3DA437B681B680A409F
:1043C0001A637B681B68196B3B681B689BB21846B5
:1043D0003B685A6813469B001344233B00FA03F2E0
:1043E0007B681B680A431A6323E07B681B68D96AF1
:1043F0003B685A6813469B001344413B1F2202FA54
:1044000003F3DA437B681B680A40DA627B681B6847
:10441000D96A3B681B689BB218463B685A681346CA
:104420009B001344413B00FA03F27B681B680A437C
:10443000DA62224BFB607B681B68214A934209D1F8
:104440003B681B68122B05D1FB685B6843F4800254
:10445000FB685A607B681B68194A934223D13B680A
:104460001B68102B03D03B681B68112B1BD1FB680A
:104470005B6843F40002FB685A603B681B68102BC2
:1044800011D1104B1B68104AA2FB03239A0C134650
:104490009B0013445B00BB6002E0BB68013BBB6058
:1044A000BB68002BF9D17B68002283F83C200023F5
:1044B00018461437BD465DF8047B70470023014061
:1044C000002001401C00002083DE1B4380B485B027
:1044D00000AF7860794BFB60FB685B6823F4403287
:1044E000FB685A60FB685A687B685B681A43FB6824
:1044F0005A607B681B685A687B681B6822F480726C
:104500005A607B681B6859687B681B691A027B6864
:104510001B680A435A607B681B685A687B681B6883
:1045200022F040725A607B681B6859687B689A6801
:104530007B681B680A435A607B681B689A687B68C3
:104540001B6822F400629A607B681B6899687B682C
:10455000DA687B681B680A439A607B689B6A584AE2
:10456000934222D07B681B689A687B681B6822F0A4
:1045700070629A607B681B6899687B689A6A7B683E
:104580001B680A439A607B681B689A687B681B6893
:1045900022F040529A607B681B6899687B68DA6AEF
:1045A0007B681B680A439A600FE07B681B689A6807
:1045B0007B681B6822F070629A607B681B689A684F
:1045C0007B681B6822F040529A607B681B689A687F
:1045D0007B681B6822F002029A607B681B689968FE
:1045E0007B681B7E5A007B681B680A439A607B6865
:1045F00093F82030002B1BD07B681B685A687B68BF
:104600001B6842F400625A607B681B685A687B68CA
:104610001B6822F460425A607B681B6859687B689B
:104620005B6A013B5A037B681B680A435A6007E0D8
:104630007B681B685A687B681B6822F400625A60BA
:104640007B681B68DA6A7B681B6822F47002DA6296
:104650007B681B68D96A7B68DB69013B1A057B684C
:104660001B680A43DA627B681B689A687B681B6870
:1046700022F400729A607B681B6899687B6893F8E3
:1046800030305A027B681B680A439A607B681B685B
:104690009A687B681B6822F480629A607B681B685A
:1046A00099687B685B699A027B681B680A439A6019
:1046B00000BF1437BD465DF8047B704700230140FE
:1046C0000100000F80B584B000AF78607B68002BDC
:1046D00001D10123EDE07B6893F82030DBB2002BA1
:1046E00002D17868FEF744FD7B681B681A687B6816
:1046F0001B6842F001021A60FFF7D8FBF86012E075
:10470000FFF7D4FB0246FB68D31A0A2B0BD97B6850
:104710005B6A43F400327B685A627B68052283F847
:1047200020200123C5E07B681B685B6803F0010360
:10473000002BE5D07B681B681A687B681B6822F039
:1047400002021A60FFF7B2FBF86012E0FFF7AEFB5F
:104750000246FB68D31A0A2B0BD97B685B6A43F4C9
:1047600000327B685A627B68052283F8202001238F
:104770009FE07B681B685B6803F00203002BE5D1B8
:104780007B681B7E012B08D17B681B681A687B68DD
:104790001B6842F080021A6007E07B681B681A6899
:1047A0007B681B6822F080021A607B685B7E012BAD
:1047B00008D17B681B681A687B681B6842F040025E
:1047C0001A6007E07B681B681A687B681B6822F028
:1047D00040021A607B689B7E012B08D17B681B68B6
:1047E0001A687B681B6842F020021A6007E07B6849
:1047F0001B681A687B681B6822F020021A607B68BD
:10480000DB7E012B08D17B681B681A687B681B68FC
:1048100022F010021A6007E07B681B681A687B6848
:104820001B6842F010021A607B681B7F012B08D1C5
:104830007B681B681A687B681B6842F008021A6074
:1048400007E07B681B681A687B681B6822F0080217
:104850001A607B685B7F012B08D17B681B681A6834
:104860007B681B6842F004021A6007E07B681B68E3
:104870001A687B681B6822F004021A607B689A68D9
:104880007B68DB681A437B681B691A437B685B693A
:1048900042EA03017B685B685A1E7B681B680A4317
:1048A000DA617B6800225A627B68012283F820204B
:1048B000002318461037BD4680BD000080B487B085
:1048C00000AF786039607B6893F82030FB75FB7D22
:1048D000012B03D0FB7D022B40F0BE80654B3B617A
:1048E0003B69D3F8003243F001023B69C3F8002270
:1048F0003B69D3F8003223F47C523B69C3F80022B1
:104900003B69D3F800223B685B6A1B021A433B6990
:10491000C3F800223B685B6903F01F03012202FA1F
:1049200003F3FB603B69D3F81C22FB68DB431A40AE
:104930003B69C3F81C223B68DB69002B23D13B6930
:10494000D3F80C22FB68DB431A403B69C3F80C2206
:104950003B68DB6819043B685B689BB23A68526944
:1049600019433B69483243F832103B689B6819048D
:104970003B681B689AB23B685B690A4339694833F4
:10498000DB000B445A603B68DB69012B22D13B6999
:10499000D3F80C22FB681A433B69C3F80C223B682E
:1049A0001B6819043B685B689BB23A6852691943FB
:1049B0003B69483243F832103B689B6819043B68F6
:1049C000DB689AB23B685B690A4339694833DB00AC
:1049D0000B445A603B689B69002B09D13B69D3F8B3
:1049E0000422FB68DB431A403B69C3F8042207E05A
:1049F0003B69D3F80422FB681A433B69C3F80422DD
:104A00003B681B69002B09D13B69D3F81422FB6872
:104A1000DB431A403B69C3F8142207E03B69D3F833
:104A20001422FB681A433B69C3F814223B681B6AD3
:104A3000012B07D13B69D3F81C22FB681A433B6961
:104A4000C3F81C223B69D3F8003223F001023B6912
:104A5000C3F80022002306E07B685B6A43F48022EF
:104A60007B685A62012318461C37BD465DF8047BFB
:104A7000704700BF0064004080B584B000AF78602C
:104A80007B6893F82030DBB2012B2ED17B680222A9
:104A900083F820207B681B681A687B681B6822F0FB
:104AA00001021A60FFF702FAF86012E0FFF7FEF960
:104AB0000246FB68D31A0A2B0BD97B685B6A43F466
:104AC00000327B685A627B68052283F8202001232C
:104AD00012E07B681B685B6803F00103002BE5D1E3
:104AE0007B6800225A62002306E07B685B6A43F41D
:104AF00000227B685A62012318461037BD4680BDEC
:104B000080B489B000AFF860B9607A603B60FB6840
:104B100093F82030FB77FB681B689B68BB61FB7FC9
:104B2000012B03D0FB7F022B40F0AD80BB6903F06B
:104B30008063002B0AD1BB6903F00063002B05D111
:104B4000BB6903F08053002B00F09580BB691B0EFE
:104B500003F003037B6101227B699A403B681A6082
:104B6000BB689B68002B0DD1BB681B685A05BB68EE
:104B7000DB68F96809681A437B6918331B010B4429
:104B80001A600FE0BB685B68DA00BB689B681A4379
:104B9000BB68DB68F96809681A437B6918331B0135
:104BA0000B441A60FB681968BB681A697B69183383
:104BB0001B010B4404331A60BB681B7D012B11D110
:104BC000FB681A687B6918331B01134404331B68A4
:104BD000FA68116843F480727B6918331B010B4437
:104BE00004331A607B6807331B781A067B68063328
:104BF0001B781B041A437B6805331B781B02134385
:104C00007A68043212781046FA68116843EA0002A2
:104C10007B691B010B4403F5C6731A607B68033381
:104C20001B781A067B6802331B781B041A437B68C7
:104C300001331B781B0213437A6812781046FA6816
:104C4000116843EA00027B691B010B4403F5C4733E
:104C50001A60FB681A687B6918331B0113441B68D0
:104C6000FA68116843F001027B6918331B010B4499
:104C70001A6000230EE0FB685B6A43F40012FB68D5
:104C80005A62012306E0FB685B6A43F48022FB68FA
:104C90005A62012318462437BD465DF8047B7047ED
:104CA00080B487B000AFF860B9607A603B60FB68A1
:104CB00093F82030FB75FB7D012B03D0FB7D022B8D
:104CC00040F00381BB68002B0ED1FB681B68DB68DA
:104CD00003F00303002B16D1FB685B6A43F4001258
:104CE000FB685A620123F7E0FB681B681B6903F04D
:104CF0000303002B07D1FB685B6A43F40012FB68D7
:104D00005A620123E8E0FB681A68BB681B331B0189
:104D100013441B6803F004027B689A607B689B68FD
:104D2000002B0CD1FB681A68BB681B331B011344B2
:104D30001B685B0DC3F30A027B681A600BE0FB681B
:104D40001A68BB681B331B0113441B68DB0823F084
:104D500060427B685A60FB681A68BB681B331B01A2
:104D600013441B6803F002027B68DA60FB681A6870
:104D7000BB681B331B01134404331B6803F0080397
:104D8000002B03D07B6808221A610BE0FB681A68CD
:104D9000BB681B331B01134404331B6803F00F0271
:104DA0007B681A61FB681A68BB681B331B011344DC
:104DB00004331B681B0ADAB27B689A61FB681A68C5
:104DC000BB681B331B01134404331B681B0C9AB2D2
:104DD0007B685A61FB681A68BB681B01134403F5C2
:104DE000DC731B68DAB23B681A70FB681A68BB6830
:104DF0001B01134403F5DC731B681A0A3B6801337B
:104E0000D2B21A70FB681A68BB681B01134403F521
:104E1000DC731B681A0C3B680233D2B21A70FB6851
:104E20001A68BB681B01134403F5DC731B681A0E78
:104E30003B680333D2B21A70FB681A68BB681B0167
:104E4000134403F5DE731A683B680433D2B21A7058
:104E5000FB681A68BB681B01134403F5DE731B680B
:104E60001A0A3B680533D2B21A70FB681A68BB682D
:104E70001B01134403F5DE731B681A0C3B680633F1
:104E8000D2B21A70FB681A68BB681B01134403F5A1
:104E9000DE731B681A0E3B680733D2B21A70BB6808
:104EA000002B08D1FB681B68DA68FB681B6842F0BE
:104EB0002002DA6007E0FB681B681A69FB681B6860
:104EC00042F020021A61002306E0FB685B6A43F4AB
:104ED0008022FB685A62012318461C37BD465DF8E4
:104EE000047B704780B485B000AF786039600023E0
:104EF000FB607B6893F82030FB72FB7A012B02D0B9
:104F0000FB7A022B0FD13B68002B06D17B681B6814
:104F1000DB6803F00303FB6005E07B681B681B692B
:104F200003F00303FB60FB6818461437BD465DF8C9
:104F3000047B704780B485B000AF786039607B68CF
:104F400093F82030FB73FB7B012B02D0FB7B022B01
:104F500009D17B681B6859697B681B683A680A43FA
:104F60005A61002306E07B685B6A43F480227B6819
:104F70005A62012318461437BD465DF8047B70471A
:104F800080B485B000AF786039607B6893F82030DA
:104F9000FB73FB7B012B02D0FB7B022B0AD17B68CE
:104FA0001B6859693B68DA437B681B680A405A6191
:104FB000002306E07B685B6A43F480227B685A62C8
:104FC000012318461437BD465DF8047B704780B551
:104FD0008AB000AF786000237B627B681B685B69E6
:104FE0003B627B681B685B68FB617B681B689B6836
:104FF000BB617B681B68DB687B617B681B681B6926
:105000003B617B681B689B69FB603B6A03F00103A3
:10501000002B7CD0BB6903F00103002B23D07B68FD
:105020001B6801229A60BB6903F00203002B03D0C6
:10503000786800F083F916E0BB6903F00403002BE5
:1050400004D07B6A43F400637B620CE0BB6903F02D
:105050000803002B04D07B6A43F480537B6202E098
:10506000786800F089F9BB6903F48073002B24D0C1
:105070007B681B684FF480729A60BB6903F400730D
:10508000002B03D0786800F063F916E0BB6903F4E5
:105090008063002B04D07B6A43F400537B620CE0F6
:1050A000BB6903F40063002B04D07B6A43F48043A4
:1050B0007B6202E0786800F069F9BB6903F4803331
:1050C000002B24D07B681B684FF480329A60BB6948
:1050D00003F40033002B03D0786800F043F916E0A6
:1050E000BB6903F48023002B04D07B6A43F40043A4
:1050F0007B620CE0BB6903F40023002B04D07B6AC5
:1051000043F480337B6202E0786800F049F93B6A3F
:1051100003F00803002B0CD07B6903F01003002B75
:1051200007D07B6A43F400737B627B681B681022A4
:10513000DA603B6A03F00403002B0BD07B6903F0B9
:105140000803002B06D07B681B680822DA607868A9
:1051500000F030F93B6A03F00203002B09D07B68B2
:105160001B68DB6803F00303002B02D07868FDF7AF
:10517000EDFB3B6A03F04003002B0CD03B6903F0CE
:105180001003002B07D07B6A43F480637B627B684B
:105190001B6810221A613B6A03F02003002B0BD01E
:1051A0003B6903F00803002B06D07B681B680822CC
:1051B0001A61786800F012F93B6A03F01003002BC3
:1051C00009D07B681B681B6903F00303002B02D026
:1051D000786800F0F9F83B6A03F40033002B0BD039
:1051E000FB6903F01003002B06D07B681B681022BC
:1051F0005A60786800F0FCF83B6A03F48033002BB7
:105200000BD0FB6903F00803002B06D07B681B68FA
:1052100008225A60786800F0F5F83B6A03F400430E
:10522000002B7BD0FB6903F00403002B72D03B6A98
:1052300003F48073002B08D0FB6803F00103002BFC
:1052400003D07B6A43F001037B623B6A03F4007383
:10525000002B08D0FB6803F00203002B03D07B6A0D
:1052600043F002037B623B6A03F48063002B08D0A7
:10527000FB6803F00403002B03D07B6A43F00403B4
:105280007B623B6A03F40063002B43D0FB6803F0AE
:105290007003002B3ED0FB6803F07003602B2BD013
:1052A000602B2ED8502B22D0502B2AD8402B19D02F
:1052B000402B26D8302B10D0302B22D8102B02D0E8
:1052C000202B05D01DE07B6A43F008037B6219E0C8
:1052D0007B6A43F010037B6214E07B6A43F0200397
:1052E0007B620FE07B6A43F040037B620AE07B6AEB
:1052F00043F080037B6205E07B6A43F480737B624A
:1053000000E000BF7B681B689A697B681B6822F01D
:1053100070029A617B681B6804225A607B6A002BCA
:1053200008D07B685A6A7B6A1A437B685A6278683D
:1053300000F072F800BF2837BD4680BD80B483B04E
:1053400000AF786000BF0C37BD465DF8047B704746
:1053500080B483B000AF786000BF0C37BD465DF805
:10536000047B704780B483B000AF786000BF0C3717
:10537000BD465DF8047B704780B483B000AF7860B1
:1053800000BF0C37BD465DF8047B704780B483B026
:1053900000AF786000BF0C37BD465DF8047B7047F6
:1053A00080B483B000AF786000BF0C37BD465DF8B5
:1053B000047B704780B483B000AF786000BF0C37C7
:1053C000BD465DF8047B704780B483B000AF786061
:1053D00000BF0C37BD465DF8047B704780B483B0D6
:1053E00000AF786000BF0C37BD465DF8047B7047A6
:1053F00080B483B000AF786000BF0C37BD465DF865
:10540000047B704780B483B000AF786000BF0C3776
:10541000BD465DF8047B704780B483B000AF786010
:1054200000BF0C37BD465DF8047B704780B485B083
:1054300000AF78607B6803F00703FB600C4BDB6810
:10544000BB60BA684FF6FF031340BB60FB681A02EB
:10545000BB68134343F0BF6343F40033BB60044AAB
:10546000BB68D36000BF1437BD465DF8047B70474E
:1054700000ED00E080B400AF044BDB681B0A03F0D2
:1054800007031846BD465DF8047B704700ED00E059
:1054900080B483B000AF0346FB7197F90730002B4F
:1054A0000BDBFB7903F01F02074997F907305B0913
:1054B000012000FA02F241F8232000BF0C37BD465C
:1054C0005DF8047B704700BF00E100E080B483B06A
:1054D00000AF03463960FB7197F90730002B0ADBF8
:1054E0003B68DAB20C4997F907301201D2B20B448B
:1054F00083F800230AE03B68DAB20849FB7903F03D
:105500000F03043B1201D2B20B441A7600BF0C37D2
:10551000BD465DF8047B704700E100E000ED00E06F
:1055200080B489B000AFF860B9607A60FB6803F0BE
:105530000703FB61FB69C3F10703042B28BF0423A6
:10554000BB61FB690433062B02D9FB69033B00E016
:1055500000237B614FF0FF32BB6902FA03F3DA43A9
:10556000BB681A407B699A404FF0FF317B6901FAB2
:1055700003F3D9437B680B40134318462437BD46D9
:105580005DF8047B704780B582B000AF78607868C2
:10559000FFF74CFF00BF0837BD4680BD80B586B021
:1055A00000AF0346B9607A60FB7300237B61FFF7AD
:1055B00061FF78617A68B9687869FFF7B1FF0246E0
:1055C00097F90F3011461846FFF780FF00BF1837D4
:1055D000BD4680BD80B582B000AF0346FB7197F930
:1055E00007301846FFF754FF00BF0837BD4680BD9F
:1055F00080B582B000AF78607B68002B01D10123B9
:1056000014E07B681B79DBB2002B05D17B6800229C
:105610005A717868FDF77EFE7B6802221A717B68FA
:1056200000221A617B6801221A710023184608378C
:10563000BD4680BD80B483B000AF786039607B68C0
:10564000002B01D1012346E07B685B79012B01D15E
:10565000022340E07B6801225A717B6802221A71A2
:105660007B681B6819683B6803F0100301229A40AD
:105670007B681B680A431A603B68002B0FD17B686C
:105680001B681B6803F03C033C2B1DD17B681B6827
:105690005A687B681B6842F001025A6014E07B681C
:1056A0001B681B6803F470123B6803F010033C2175
:1056B00001FA03F39A4207D17B681B685A687B683A
:1056C0001B6842F002025A607B6801221A717B68F3
:1056D00000225A71002318460C37BD465DF8047B42
:1056E000704780B487B000AFF860B9607A603B6003
:1056F00000237B61FB68002B01D1012315E0FB68CF
:105700001B687B61BB68002B05D17A697B681344F9
:1057100008337B6104E07A697B68134414337B614E
:105720007B691A463B681360002318461C37BD4648
:105730005DF8047B704780B489B000AFF860B96051
:105740007A600023FB77FB68002B02D0BB68002B3C
:1057500001D1012342E0FB685B79012B01D10223D7
:105760003CE0FB6801225A71FB6802221A71FB6857
:105770001B681B68BB617B6803F0100340F6FE7278
:1057800002FA03F3DB43BA691340BB61BB681A68D2
:10579000BB685B6813437B617B6803F010037A6925
:1057A00002FA03F3BA691343BB61FB681B68BA6969
:1057B0001A60FB681B6819687B6803F01003C0223D
:1057C00002FA03F3DA43FB681B680A401A60FB68BD
:1057D00001221A71FB6800225A71FB7F1846243798
:1057E000BD465DF8047B704780B489B000AF786037
:1057F000396000237B6100233B610023BB610023F0
:10580000FB616BE10122FB6902FA03F37B613B68F8
:105810001B687A6913403B613A697B699A4240F0A0
:105820005A813B685B6803F00303012B05D03B689A
:105830005B6803F00303022B30D17B689B68BB617C
:10584000FB695B00032202FA03F3DB43BA691340EE
:10585000BB613B68DA68FB695B0002FA03F3BA6973
:105860001343BB617B68BA699A607B685B68BB6104
:105870000122FB6902FA03F3DB43BA691340BB61FF
:105880003B685B681B0903F00102FB6902FA03F342
:10589000BA691343BB617B68BA695A603B685B684D
:1058A00003F00303032B17D07B68DB68BB61FB6944
:1058B0005B00032202FA03F3DB43BA691340BB61C6
:1058C0003B689A68FB695B0002FA03F3BA69134309
:1058D000BB617B68BA69DA603B685B6803F003030D
:1058E000022B23D1FB69DA087B68083253F8223097
:1058F000BB61FB6903F007039B000F2202FA03F36D
:10590000DB43BA691340BB613B681A69FB6903F06A
:1059100007039B0002FA03F3BA691343BB61FB69F7
:10592000DA087B680832B96943F822107B681B6883
:10593000BB61FB695B00032202FA03F3DB43BA6934
:105940001340BB613B685B6803F00302FB695B00CB
:1059500002FA03F3BA691343BB617B68BA691A6040
:105960003B685B6803F44033002B00F0B4800023F5
:10597000FB60604B5B6C5F4A43F4804353645D4B58
:105980005B6C03F48043FB60FB685B4AFB699B082C
:10599000023352F82330BB61FB6903F003039B0021
:1059A0000F2202FA03F3DB43BA691340BB617B6841
:1059B000524A93422BD07B68514A934225D07B6850
:1059C000504A93421FD07B684F4A934219D07B685C
:1059D0004E4A934213D07B684D4A93420DD07B6868
:1059E0004C4A934207D07B684B4A934201D107232C
:1059F0000EE008230CE006230AE0052308E0042358
:105A000006E0032304E0022302E0012300E0002378
:105A1000FA6902F0030292009340BA691343BB6132
:105A20003549FB699B080233BA6941F823203B4B97
:105A30009B68BB613B69DB43BA691340BB613B6850
:105A40005B6803F48013002B03D0BA693B691343EE
:105A5000BB61324ABB699360304BDB68BB613B6919
:105A6000DB43BA691340BB613B685B6803F4001316
:105A7000002B03D0BA693B691343BB61274ABB695A
:105A8000D360264B5B68BB613B69DB43BA6913405B
:105A9000BB613B685B6803F40033002B03D0BA6939
:105AA0003B691343BB611D4ABB6953601B4B1B68B9
:105AB000BB613B69DB43BA691340BB613B685B6810
:105AC00003F48033002B03D0BA693B691343BB61F5
:105AD000124ABB691360FB690133FB61FB690F2B41
